:020000040800F2
:1000000000040020A1010008410C0008B1150008FF
:10001000B1150008B1150008B1150008B1150008A8
:10002000B1150008B1150008B1150008B115000898
:10003000B1150008B1150008B1150008B115000888
:10004000B1150008B1150008B1150008B115000878
:10005000B1150008B1150008B1150008B115000868
:10006000B1150008210E0008810C0008010D0008E0
:10007000B1150008B1150008B1150008812200086B
:10008000B1150008B1150008B1150008B115000838
:10009000B1150008B1150008B1150008B115000828
:1000A000B1150008B1150008B1150008B115000818
:1000B000B1150008B1150008B1150008810F00083E
:1000C000C172000819010008B1080008612D00087C
:1000D00081370008913D000831530008E1640008B1
:0400E000816900082A
:0400E400F10000081F
:1000F00010B5064C2378002B07D1054B002B02D0FE
:10010000044800E000BF0123237010BD080D00204B
:100110000000000058AE000808B5084B002B03D0C3
:100120000748084900E000BF07480368002B00D1DA
:1001300008BD064B002BFBD09847F9E700000000F4
:1001400058AE00080C0D0020080D00200000000033
:10015000F0B544464D4656465F46F0B46B46CB601C
:10016000C3689D46F0BCA046A946B246BB46F0BD5A
:1001700001F056FA62B6281CA047002001F0C0FE2C
:1001800001F036FA01F0CCFC01F04AFA014A024BC8
:100190001360FEE704ED00E00000008000000000B6
:1001A00072B6224880F30988022080F31488BFF3D6
:1001B0006F8F01F09DFF03F0D3FA1D481D491E4AC1
:1001C000914202DA08600431FAE71C49174A914269
:1001D00002DA08600431FAE719491A4A1A4B9A42BE
:1001E00004DA0868106004310432F8E70020174987
:1001F000174A914202DA08600431FAE701F090FFF1
:1002000001F07EFF134C144DAC4203DA216888479D
:100210000434F9E706F0F4FC104C114DAC4203DA5B
:10022000216888470434F9E70E4908470008002090
:100230005555555500000020000400200004002002
:1002400058AE000800080020080D0020080D00200E
:10025000083F0020C0000008E4000008E400000897
:10026000E800000811210008000000000000000064
:1002700002B4714649084900095C49008E4402BC39
:100280007047C046000000000000000000000000B1
:10029000002243088B4274D303098B425FD3030AC5
:1002A0008B4244D3030B8B4228D3030C8B420DD3D8
:1002B000FF22090212BA030C8B4202D31212090266
:1002C00065D0030B8B4219D300E0090AC30B8B42A4
:1002D00001D3CB03C01A5241830B8B4201D38B0352
:1002E000C01A5241430B8B4201D34B03C01A5241F7
:1002F000030B8B4201D30B03C01A5241C30A8B423A
:1003000001D3CB02C01A5241830A8B4201D38B0224
:10031000C01A5241430A8B4201D34B02C01A5241C8
:10032000030A8B4201D30B02C01A5241CDD2C3093A
:100330008B4201D3CB01C01A524183098B4201D3B6
:100340008B01C01A524143098B4201D34B01C01AA1
:10035000524103098B4201D30B01C01A5241C30819
:100360008B4201D3CB00C01A524183088B4201D388
:100370008B00C01A524143088B4201D34B00C01A74
:100380005241411A00D20146524110467047FFE7E0
:1003900001B5002000F00CF802BDC0460029F7D0DE
:1003A00003B5FFF775FF0EBC4243891A1847C046D4
:1003B0007047C04600000000000000000000000080
:1003C000094802290ED0032906D001394B42594170
:1003D00006484942084005E00020032A02D8044BA1
:1003E000D20098187047C046007500086074000875
:1003F000E0740008000000000000000000000000A1
:1004000010B50C1C13030103221C024804F078FEF3
:10041000002010BD68330020000000000000000034
:1004200070B50E1C141C0503002C0BD0291C0748AA
:10043000321C04F025FF80235B04ED18002803D153
:10044000013CF1E7201C00E0012070BD6833002072
:1004500008B572B601F0CCF808BD0000000000003D
:1004600008B501F0DDF8074B1A689A4208D09B697D
:1004700099689368994203D20348044901F020FC2B
:1004800062B608BDE03D0020607500087075000888
:10049000031C74331A78011CA12A10D15A78002049
:1004A000FE2A19D19A79DB791B021343012B13D150
:1004B0000A4A086710708A66CB66181C0CE0002098
:1004C000212A09D15A78FF2A06D1D8799A790002CF
:1004D000104343425841C0B27047C046240D00202B
:1004E00070B5022922D10C1C051C72B601F0B0F8BF
:1004F0000F4E281C321C012101F0C2FF281C211CB8
:10050000321C01F0BDFF012280210A4C0A4BC900B8
:10051000E2540A4B186801F04BF98021084BC900DE
:10052000E05801F045F901F0ABF862B670BDC04685
:1005300010760008380D002058100000183D0020EB
:100540005410000000000000000000000000000047
:1005500008B572B601F07CF88021054B054A4902C6
:10056000D05801F025F901F08BF862B608BDC046FD
:1005700054100000380D00200000000000000000B2
:1005800008B572B601F064F88021054B054A0902EE
:10059000D05801F00DF901F073F862B608BDC046FD
:1005A00054100000380D0020000000000000000082
:1005B00037B58025154AAD025369C0212B435361DD
:1005C0009023DB05041C186809040843186051696E
:1005D0000F4829435161C0211A6889040A431A60EF
:1005E000221C7F212C3213788B430F390B4313705D
:1005F000231C0A2233331A700023C0310093363291
:10060000044B01F025FC044BE05037BD00100240C4
:10061000981D0020210C000854100000000000006C
:1006200010B50A4C01F0BCFEA26D094B09481340FD
:10063000A36501F035FC0848084901F0D1FE80228D
:10064000A36D12021343A36510BDC046005C0040B9
:10065000FF7FFFFF983A0000583D002040760008D9
:10066000044A08B5916D044B04480B40936501F0B2
:10067000E7FE08BD005C0040FF7FFFFF583D002003
:1006800038B50D1C141CFFF7E3FE2A1C0121231CA6
:10069000044801F06DFFFFF7E3FE0120404201F046
:1006A000AFF838BD583D00200000000000000000F9
:1006B000802008B54002034901F0BAF8434258418E
:1006C000400008BD78690000000000000000000044
:1006D00070B50E1C151C041CFFF7BAFE321C2B1C37
:1006E0000221044801F00CFFFFF7BAFE201CFFF7BF
:1006F000DFFF70BD583D002000000000000000003A
:100700005522011C002370B5C2771F31023A4224E2
:1007100083604A70CA70021C8C7004792332147092
:100720004479061C547084792B369470C479137103
:10073000D47053719371D3710E4A845C021C2E32B3
:100740009C4207D00F2514783370AC431470937219
:10075000D3720BE0022535700F261378B3432B4379
:100760001370031C3A2238331A705C700D22FFF7A5
:1007700087FF70BD5810000000000000000000005E
:100780000323C27C13400022022B02D0032B02D190
:100790000122024BC25400207047C046581000008E
:1007A00038B5051CC07CA97C02F0AAFD2B7C041C7A
:1007B000DB0707D5031C072800D907239CB2281C98
:1007C000074904E0232800D92424281C0549221CB9
:1007D000FFF756FFAB6800201C1BAC6038BDC0465D
:1007E00010750008207500080000000000000000DF
:1007F00038B5C57C041C112D00D91225211C201CE4
:100800002A1C2C31FFF73CFFA36800205D1BA5606C
:1008100038BD0000000000000000000000000000E3
:1008200038B5011CF92300253E315B42C5874B805A
:10083000031C1022041C42331D805A80083AFFF723
:100840001FFFA368281C083BA36038BD0000000000
:1008500038B5031C08220025011C041C49331A70FA
:1008600001335A80063A1A710E321D805D71DD71B6
:100870009A714631043AFFF703FFA368281C0C3B2A
:10088000A36038BD00000000000000000000000070
:1008900010B5041C04490822FFF7F2FEA3680020EB
:1008A000083BA36010BDC046507500080000000062
:1008B0000121024B024AD1547047C0465810000033
:1008C000380D0020000000000000000000000000C3
:1008D00070B5041C0D1C637C161CE17CA27C007DA1
:1008E00002F016FD2860A17DE07D02F009FD802167
:1008F0002A68031C308080180901884214D91749DE
:10090000174803F025F9221C0F212E3213780125F8
:100910008B430A390B431370231C212238331A707E
:1009200000233934237017E0A2681B0300259A4284
:1009300012D00C490A4803F00BF9221C0F212E3269
:1009400013788B430A390B431370231C202238334E
:1009500039341A7025700135281C70BD9C7500084B
:100960003C200020BB7500080000000000000000D3
:10097000F7B56A460023941C01A9221C051C0193AB
:100980002380FFF7A5FF061E20D12388002B1ED051
:100990002F1C52370198391C0122FFF731FD002826
:1009A00010D18022281C5201391CFFF769FEAB6868
:1009B000084A9B18AB602388013B2380019B0133CD
:1009C0000193E2E70448054903F0C2F80126301C10
:1009D000FEBDC04600F0FFFF3C200020C9750008A6
:1009E000F7B5037B7F2B0BD9021C0F212E32137816
:1009F00038308B430A390B4313702023037032E0E5
:100A00006A460023961C01A9321C041C0193338002
:100A1000FFF75EFF051E26D13388002B24D0271C4C
:100A200080225237201C391C5201FFF751FE00284A
:100A300002D00E480E4908E00198391C0122FFF748
:100A4000EFFC002804D009480A4903F081F80AE0C5
:100A5000A368094A9B18A3603388013B3380019B3C
:100A600001330193D8E70125281CFEBD3C2000205E
:100A7000D2750008DC75000800F0FFFF00000000E0
:100A800070B5C27B041C1E2A3BD012D8122A29D072
:100A900006D8002A20D0032A36D1FFF7A9FE47E066
:100AA0001B2A1CD01D2A20D01A2A2DD1FFF7F0FEB8
:100AB0003EE0282A22D006D8232A1CD0252A23D17A
:100AC000FFF7AEFE34E02F2A1BD0352A19D02A2A90
:100AD0001AD1FFF785FF2BE0FFF712FE6AE0FFF760
:100AE0004FFE25E0FFF75CFE22E03348334903F078
:100AF0002FF809205CE0FFF7ABFE19E0FFF738FFA5
:100B000016E00023A36015E02B482D4903F020F8E0
:100B1000221C0F212E32137801208B430A390B43FC
:100B20001370231C202238331A7000225A703FE0C1
:100B300000283DD1221C0F212E32137800208B4338
:100B40001370231C383318705870031C221C2B326E
:100B50001370251C55231F35E3774222023B6B702F
:100B6000EB70231CAA70227923331A7062795A70B1
:100B7000A2799A70E279DA70227A1A71627A5A71DD
:100B8000A27A9A71E27ADA71002805D1201C291C18
:100B90000D22FFF775FD0DE0FFF75AFC0948012112
:100BA00001F01EFD061CFFF75BFC002E02D1EDE7F5
:100BB0000223CBE770BDC0463C20002089750008A9
:100BC000E5750008583D002000000000000000000E
:100BD00038B5041C0120404200F012FE051C4305FC
:100BE00009D5FFF735FC0C480221221C1F2301F018
:100BF00087FCFFF735FCEB03ECD5201CFFF740FF2B
:100C0000FFF726FC04480221221C1F2301F078FC78
:100C1000FFF726FCDEE7C046583D0020000000003C
:100C200008B5034B034A9B6903489A61FFF7D0FF5D
:100C3000E03D0020FD750008380D00200000000098
:100C4000EFF30983203383F3098862B6704700000D
:100C500010B50F300FD072B6EFF30984203C84F347
:100C6000098880235B04E36100F01AFF024B00282F
:100C700000D1024BA36110BD810100088C01000866
:100C800070B5754600F014FD184C0F266069621DA2
:100C90000168D27FA31DD140DB7F31400AD00E1CFA
:100CA000964046601248DB001A58002A02D0C3184A
:100CB00058689047A06A231C3834227801680F24B2
:100CC000D14039331B7821400AD00C1C9440446039
:100CD0000748DB001A58002A02D0C318586890470A
:100CE00000F0FEFC281CFFF7B3FF70BD8076000803
:100CF000203D002000000000000000000000000077
:100D000070B5754600F0D4FC304C0F26221CE06B09
:100D10004C3201681278231CD1404D331B7831408E
:100D20000AD00E1C964046602948DB001A58002A5B
:100D300002D0C31858689047221C206D60320168A9
:100D40001278231CD1400F2661331B7831400AD022
:100D50000E1C964046601E48DB001A58002A02D03E
:100D6000C31858689047221C606E7432016812786C
:100D7000231CD1400F2675331B7831400AD00E1C3E
:100D8000964046601248DB001A58002A02D0C31869
:100D900058689047A06F231C8834227801680F247C
:100DA000D14089331B7821400AD00C1C9440446008
:100DB0000748DB001A58002A02D0C3185868904729
:100DC00000F08EFC281CFFF743FF70BD8076000802
:100DD000203D002000000000000000000000000096
:100DE00008B50B4B01219A6A0022494299629A6226
:100DF000186919611A61D96806480143D9608021D0
:100E0000DA60DA6949050A43DA6100F029F808BDB9
:100E100000100240FFFFBFFF0000000000000000C4
:100E200010B5744600F044FC0F23084A11681940BD
:100E300006D05160064A1368002B01D050689847CD
:100E400000F04EFC201CFFF703FF10BD0000024025
:100E5000203D002000000000000000000000000015
:100E600000220B4B1A600123142200205A43094927
:100E7000103A8A5808491060DA00083A52180133CB
:100E80001060082BF0D10122044B52425A60704787
:100E9000D81E002080760008203D0020000002407F
:100EA000F7B5041C0F1C161C0193002803D11D4824
:100EB0001D4900F005FF0121081C637C1B4D984073
:100EC00084462A6800956546081C2A4228D118489D
:100ED000DB001E50C31801985860530603D1154813
:100EE00043690B4343610F236068016899430160C4
:100EF000217C8B4021684B6000230360A368134270
:100F000005D1002E03D0A07C391C01F031F901235A
:100F1000627C00209340009A12681343009A136089
:100F2000FEBDC0465076000856860008D81E002038
:100F3000203D0020001002400000000000000000E2
:100F40000D4B70B51B6D0D4CC0001B19181893B2DA
:100F5000048843800B1CA4B2D01A0818002809DDAD
:100F60005D7818782D02054304485E1A2018355222
:100F70000233F1E770BDC046005C004000600040F5
:100F80007346F0B57B4D87B0039300F091FB6C6C1A
:100F9000630504D5784B79486B6401F041FB230568
:100FA00008D508222B6C754813432B64744B6B6473
:100FB00001F05EFBE3040CD5AB6C6E4A1B0406D457
:100FC0000821136C6D488B43136401F061FB6D4B7A
:100FD0006B64A3051BD569484368DB68002B00D010
:100FE0009847694B6B6412E00F21624B0C40A600DE
:100FF000F618336861480193A31C9B00C3185F680F
:10100000019B1B0609D4019B1B0434D46C6C802308
:101010001B029C461C42E7D1A4E032685B497B6915
:101020000A4061461143DA68316094465A6819688B
:1010300062445A608A1A13D0388A824200D9021C4C
:101040009968DA6061449960E0B2FFF779FF32682D
:101050004F4B1340302253404E4A13433360D2E784
:101060000122A240038993430381BB68002BCAD0AD
:10107000E1B29847C7E73268444B134080221343DC
:101080003360019B1B0507D53C48A31C9B00C3187C
:101090005B68E1B25B6859E0BA693F4993680193C4
:1010A0002B6D5B18E1005B18998889B20291029858
:1010B00039498446614404910199DB888C469B053B
:1010C0009B0D6146581A0199401801280FD96146B5
:1010D0000198081A05903049029840180599085A55
:1010E00061460870000A487002218C44E9E75908FB
:1010F0000498490040180290019884468C448B4221
:1011000003D060460299098801709168C9189160FE
:101110005168C91851601168C91A11609189013963
:1011200089B291817A8A934201D3002910D1012298
:10113000A2401248438993434381A31C9B00C318D8
:101140005B68DB68002B00D160E7E1B298475DE7A0
:101150003268124B1340C022920153400D4A134390
:10116000336053E700F0BCFA0398FFF771FD07B056
:10117000F0BDC046005C0040FFFBFFFF583D002073
:10118000FFF7FFFFFFEFFFFFFFFDFFFF0F07FFFF71
:10119000BF87FFFF80800000006000408FB7FFFF27
:1011A00008B5024801F004F908BDC046583D0020CA
:1011B00038B50278012A14D10A4B041E9C420DD185
:1011C000802009490004CB69084D0343CB611F20EF
:1011D0002A64032100F0CCFF00232B64201C01F0C3
:1011E0001FFA38BD583D002000100240005C00404E
:1011F00008B50378012B0DD1074B98420AD11F2067
:1012000000F0DEFF0322054B1A64054A054BD16945
:101210000B40D36108BDC046583D0020005C004033
:1012200000100240FFFF7FFF0000000000000000F0
:1012300080237E3002781343014AD3647047C0464E
:10124000005C004000000000000000000000000002
:101250008B1C9B00C318F7B55F6803233A68061C14
:101260000C1C13400025022B0DD0032B09D0012BA1
:1012700004D13748374900F023FD04E08025AD0054
:1012800001E0C025ED00344B344A1B6D9B18E20091
:101290009B1800937B69002B1AD000230121009A30
:1012A0005380321DD36F01933B8A01338B430199E5
:1012B0005B18D367C0229200934203D9284829497A
:1012C00000F0FEFC6B46009A9B88138020231D4390
:1012D000BB69002B2AD0798A4A1E3E2907D91F23D1
:1012E000134301335B11204A9B02134306E00123A1
:1012F00013430133DA0FD3185B109B02009A9BB2A1
:10130000D380012301319943C0230436F76F9B003A
:10131000C919F167994203D91148124900F0D0FC6C
:10132000009BBFB29F8080239B011D432A1C0F4B53
:101330002243134008490E4AA40064181343236053
:101340000C4923680D405D4015432560F7BDC0463C
:101350008077000810770008005C004000600040C3
:10136000407700082D7700080080FFFF0F07FFFF80
:101370008080000070780000000000000000000085
:10138000002208B50B4B1A655A648032DA64426851
:10139000D268002A01D09E2200E09C2212021A6428
:1013A0004022031DDA67044B0021C360FFF750FFA2
:1013B00008BDC046005C00405077000800000000F7
:1013C000074B8900C858C0239B010340181E05D055
:1013D000044A02209B185A425A41801A7047C0465C
:1013E000005C004000F0FFFF000000000000000073
:1013F000064B8900C85830230340181E04D0103B08
:101400005A425A410220801A7047C046005C004090
:101410000A4B0B481B6D30B51B18C900141C59181A
:10142000131C8888083480B2054D811A4919595A0D
:1014300019800233A342F7D130BDC046005C0040A2
:1014400000600040000000000000000000000000FC
:1014500038B58B1C9B00C01843680C1C9D6928681C
:10146000002802D10123AB8105E0598A01384018D8
:10147000FEF70EFFA881064BA400E4182268054B76
:101480001340C02292015340034A1343236038BDE6
:10149000005C00408FB7FFFF80800000000000006C
:1014A0008B1C9B0010B5C01842680C1C5369128A33
:1014B00019688A4200D90A1CDA60201C9968FFF773
:1014C0003FFD064BA400E4182268054B1340302270
:1014D0005340044A1343236010BDC046005C0040E3
:1014E000BF87FFFF808000000000000000000000B8
:1014F000064B8900C9180A68054B13408022520127
:101500005340044A13430B607047C046005C0040E0
:101510008FB7FFFF80800000000000000000000087
:10152000054B8900C9180A68044B13401022534028
:10153000034A13430B607047005C0040BF87FFFF06
:10154000808000000000000000000000000000009B
:10155000C022074B8900C9180B68920113409342BF
:1015600005D00A68034B1340034A13430B607047CE
:10157000005C0040BF87FFFF80A00000000000006B
:10158000084B8900C91830230A681340302B07D054
:101590000A68054B134020225340044A13430B6052
:1015A0007047C046005C0040BF87FFFF808000009E
:1015B000FEE7000000000000000000000000000046
:1015C00008B5064B1A6B002A02D15B6B002B03D0C7
:1015D0000348044900F074FB08BDC046E03D00200C
:1015E000AA770008568600080000000000000000EE
:1015F00010B5074C236B002B02D1636B002B03D07B
:101600000448054900F05CFB0123636310BDC0463C
:10161000E03D0020AF77000856860008000000007B
:1016200010B5074C236B002B02D1636B002B03DC3E
:101630000448054900F044FB0023636310BDC04625
:10164000E03D0020B4770008568600080000000046
:1016500010B5074C236B002B02DD636B002B03D00E
:101660000448054900F02CFB0123636310BDC0460C
:10167000E03D0020B9770008568600080000000011
:1016800010B5074C236B002B02DD636B002B03DCD2
:101690000448054900F014FB0023636310BDC046F5
:1016A000E03D0020BE7700085686000800000000DC
:1016B00010B572B6074C236B002B02DB636B002B5B
:1016C00003D00548054900F0FBFA236B013323637F
:1016D00062B610BDE03D0020C377000856860008C2
:1016E00010B572B6074C236B002B02DD636B002B29
:1016F00003D00548054900F0E3FA236B013B23635F
:1017000062B610BDE03D0020C8770008568600088C
:1017100008B5064B1A6B002A02DB5B6B002B03DC5F
:101720000348044900F0CCFA08BDC046E03D002063
:10173000CD77000856860008000000000000000079
:1017400008B5064B1A6B002A02D15B6B002B03DC39
:101750000348044900F0B4FA08BDC046E03D00204B
:10176000D377000856860008000000000000000043
:1017700008B572B6FFF73CFF08BD0000000000008E
:1017800008B5FFF74DFF074B1A689A4208D09B69CE
:1017900099689368994203D20348044900F090FA8B
:1017A00062B608BDE03D0020F077000870750008C3
:1017B00038B5041C0D1CFFF7ABFF002C03D10D48FE
:1017C0000D4900F07DFAA16A631C2943A162DB7F09
:1017D0000A2B03D1636A0B4206D10AE00B2B08D116
:1017E000636A1940994204D10023201C636200F00F
:1017F0006FF838BD00780008568600080000000029
:1018000070B5061C094B9D69FFF7B2FFAC6A344006
:1018100005D16E620A2000F0B3F8AC6A3440AB6ABE
:10182000A343AB62FFF7ACFF201C70BDE03D00207E
:10183000F8B5061C0E4B0F1C9D69FFF799FFAC6AAB
:1018400034400ED1002F03D1FFF79AFF00200EE0A5
:101850006E620A20391C00F0BBF80028F4DBAC6A89
:101860003440AB6AA343AB62FFF78AFF201CF8BD8C
:10187000E03D00200000000000000000000000002B
:101880000722054B05499B1893430B60044B934378
:10189000044A13607047C046083F0020F81E00202D
:1018A00000400020F41E00200000000000000000A6
:1018B0000022034B1B605B609A601B615B61704799
:1018C000E03D0020000000000000000000000000DB
:1018D00038B5041CFFF71CFF002C03D10E480F493C
:1018E00000F0EEF9651CEB7F002B01D00F2B03D12C
:1018F00009480B4900F0E4F90023A268EB77094B93
:101900001B6899689142FBD25A6823606260201C70
:1019100014605C6038BDC046307800085686000808
:10192000757B0008E03D0020000000000000000082
:1019300038B5041C72B6FFF78BFE631CD87F0528F0
:1019400013D8FEF795FC181212030D070022636AE4
:101950001A600AE0656AFFF7DBFEAB680133AB6033
:10196000226863681A602268536001235B426362E5
:10197000201CFFF7ADFFFFF783FE62B638BD000005
:1019800038B5041CFFF7DCFE0D4B9D696A1CD4774B
:101990001A6811684B60196001219A610132D17790
:1019A000EFF309821C1CEB69243A934203D90548E2
:1019B000A96900F085F9291CA069FEF7C9FB38BDAB
:1019C000E03D00204078000800000000000000001A
:1019D00070B50E1C86B0051CFFF7B2FE0D4C731CD3
:1019E00011D0A369311C0C4A01A800F0E1FA281CAF
:1019F000FFF7C6FFFFF78CFE049B002B06D001A863
:101A000000F026FB02E0281CFFF7BAFFA369586A22
:101A100006B070BDE03D0020311900080000000054
:101A200070B5051C0E1CFFF78BFE164C2368A342F5
:101A300008D0A2699B6892689A4203D2124813495F
:101A400000F03EF9A069AB6882686E62934203D8E9
:101A5000281CFFF73DFF14E0FFF73AFF01226B1C43
:101A6000061CA561DA77EFF30983C269243B9A4229
:101A700003D90748B16900F023F9281C311CFEF78F
:101A800067FB70BDE03D00206078000870750008BD
:101A90004078000800000000000000000000000086
:101AA000044B1A689B6990689B688342804140425E
:101AB0007047C046E03D002000000000000000002C
:101AC00038B5134B1A689C6911681D1C4B6019606E
:101AD00001219A610132D17762180021D177A26881
:101AE0001B6899689142FBD85A6823606260146051
:101AF0005C60EFF30983E269243B9A4203D905480D
:101B0000A16900F0DDF8A869211CFEF721FB38BDB2
:101B1000E03D0020407800080000000000000000C8
:101B200008B5FFF7CDFF08BD000000000000000071
:101B300038B5041C0D1C002801D0002903DA044824
:101B4000044900F0BDF8A5602460646038BDC0465B
:101B500080780008568600080000000000000000A1
:101B600038B5041CFFF7ECFD002C03D112481349D3
:101B700000F0A6F8A2682368002A02DBA34202D183
:101B800005E0A34203D10C480D4900F099F800206C
:101B9000A368013BA36083420CDA0A4D0530AB69B0
:101BA0005C6262681C605A6013606360FFF7E8FE65
:101BB000AB69586A38BDC046B07800085686000840
:101BC00090780008E03D00200000000000000000C8
:101BD00010B5041CFFF79CFD002C03D10F481049E1
:101BE00000F06EF8A2682368002A02DBA34202D14B
:101BF00005E0A34203D109480A4900F061F8A3684F
:101C00000133A360002B07DC2068036823605C605D
:101C100000234362FFF75CFE10BDC04670780008E9
:101C200056860008907800080000000000000000C0
:101C3000FEE70000000000000000000000000000BF
:101C400037B5134A134B116A01240B401362FFF797
:101C50002FFE00F09DF9FFF713FE40210E4800F023
:101C6000B7F8431CDC770D4B0D4DC361A861FFF73E
:101C7000A7FC62B60B4AAB69C0219A610023221C03
:101C800000930948094B00F0E3F8094B836137BD25
:101C900000ED00E0FFFF00FF183E002000040020E0
:101CA000E03D002010780008483E0020311C00086C
:101CB000D0780008000000000000000000000000D4
:101CC00010B50A1C041C72B60348211C01F090FFD9
:101CD000024BDC62FEE7C046D5780008E03D0020FC
:101CE00070B5FFF715FDFFF713FD1C4C8023E56968
:101CF000DB05586AA26AAB68861A1949B34214D840
:101D0000D218A26200222B68EE685960E361EA6093
:101D10008B4201D100F094FAFFF7B2FC62B6286959
:101D2000B04772B6FFF794FCE0E7E5698D4214D046
:101D30009A18131A012B00D802231D18281C00F032
:101D400087FA8023DB055A6AA36AD21AEB1A9A42F1
:101D500003D904480449FFF7B3FF70BDE03D0020FC
:101D6000FC3D0020C0780008E37800080000000077
:101D700008B572B6FFF73CFC08BD0000000000008B
:101D800008B5FFF74DFC074B1A689A4208D09B69CB
:101D900099689368994203D203480449FFF790FF7A
:101DA00062B608BDE03D002090790008707500081B
:101DB00010B5041E03D104480449FFF781FF211C1C
:101DC0000820FFF705FE10BDA07900085686000820
:101DD0000222431C8160DA7700238218D377836262
:101DE0008361054B5A690361426110615861031CAC
:101DF0002C33C3617047C046E03D00200000000066
:101E0000F8B5041C0F1C151C1E1CFFF781FC002CD0
:101E100005D0AF2F03D97F2D01D8002E03D109485B
:101E20000949FFF74DFF391C069B24396118E16011
:101E30004B61064B0E610B62201C291CFFF7C8FF8B
:101E4000F8BDC04670790008568600087101000888
:101E5000F7B51E1C031C171C041C0D1C021C2C3384
:101E60009A4203D0FF2111700132F9E762199342BF
:101E700003D2552119700133F9E7FFF779FF089B69
:101E80003A1C291C0093201C331CFFF7B9FF041CCB
:101E90000021FFF7C5FDFFF773FF201CFEBD00000A
:101EA00010B5041CFFF764FF201CFFF781FFFFF74C
:101EB00067FF10BD000000000000000000000000EF
:101EC00008B50A4B9B6958629A1CD27F920704D1CD
:101ED0005A69196911611B695A610F20FFF750FD9A
:101EE00003480449FFF7ECFE08BDC046E03D002072
:101EF0001079000838790008000000000000000098
:101F000010B5041CFFF734FF201CFFF7D9FF10BDEC
:101F1000094B70B59E691C1C0368051C002B03D07F
:101F200006480749FFF7CCFE2E6003207562FFF7D5
:101F300027FDA369586A70BDE03D002000790008C4
:101F40004B790008000000000000000000000000C5
:101F500070B50468002C0FD0631CDB7F0E1C051CC1
:101F6000032B03D005480649FFF7AAFE0023201CD7
:101F70002B606662FFF7ACFC70BDC046807900083C
:101F8000547900080000000000000000000000007C
:101F9000044B054ADA611A62012252425A62002257
:101FA0009A627047E03D0020FC3D002000000000E8
:101FB000F8B5041C0D1C161C1F1CFFF7A9FB002CF8
:101FC00003D0002E01D0002D03D11B481B49FFF781
:101FD00077FE8023DB052761E660596A012D00D872
:101FE0000225174B174FDA691E1C6818BA4208D130
:101FF0009962DC611C6222606260A56000F008F9F1
:1020000019E09B6AC51A93689D4201D200F020F93D
:10201000F3699A68AA4202D2AD1A1B68F9E75A68B6
:102020002360626014605C60A5609A68551B9D60C7
:1020300001235B427362F8BDB07900085686000840
:10204000E03D0020FC3D00200000000000000000FA
:1020500038B5041CFFF75CFB002C03D11D481E495A
:10206000FFF72EFEE368002B03D11A481B49FFF748
:1020700027FE1B4D1B4AEB69A3420DD06168236804
:102080000B60236859600021E160934220D0A26870
:1020900099688A189A601BE000232168E9614A6008
:1020A000E360914202D100F0CBF811E0A3688A68A6
:1020B0009A1880238A60DB05586AAB6AC31A934278
:1020C00006D2D31A012B00D80223181800F0C0F84A
:1020D00038BDC046F079000856860008C07900086F
:1020E000E03D0020FC3D002000000000000000005A
:1020F0007047000000000000000000000000000029
:102100007047000000000000000000000000000018
:10211000FEE70000000000000000000000000000DA
:102120000B4B30B5181C19685A689C68A24202D241
:1021300020C920C2FAE7D9688A4202D2002410C21C
:10214000FAE7021C103380329342ECD330BDC04614
:10215000007A0008000000000000000000000000FD
:1021600008B5FEF73DFE00F01BF900F049F808BD88
:1021700070B582080F4B03249200D218FF23C026AB
:102180000440E400A340B60095599D438B01A34051
:10219000191C1F2329439151012203409A404009F1
:1021A000131C044A80008018C02252008350036030
:1021B00070BDC04600E100E000000000000000002B
:1021C0001F220121024091400A1C43090A49203381
:1021D0009B0010B55A500322830810409040C02441
:1021E000FC3282409B005B18A4001959101C0A1C89
:1021F00082431A5110BDC04600E100E0000000001B
:1022000008B500F05DF808BD000000000000000007
:1022100038B58024E405E368051C9B0703D5054811
:102220000549FFF74DFD0023656323610233E36039
:1022300038BDC046A07A0008807A0008000000007F
:1022400080230022DB05DA607047000000000000F8
:1022500038B58023DB05DA68051C1C1C930703D402
:1022600002480349FFF72CFD656338BDB07A0008CA
:102270008F7A00080000000000000000000000004D
:1022800010B57446FFF714FA8023DB051A6992072C
:1022900009D500221A6172B6FFF7DAF9FFF720FDBF
:1022A000FFF7EEF962B6FFF71BFA201CFEF7D0FC31
:1022B00010BD000000000000000000000000000051
:1022C00010B50124104A1149D3692343D361104A40
:1022D0009368234393600F4B187CDB685843FDF7EA
:1022E000D7FF80230122DB05013852429862DA626F
:1022F00000220F209A6102215A63DA605A605C6101
:102300001C60FFF735FF10BD0010024010270000D1
:1023100000580140282000200000000000000000BC
:1023200008B5FFF77DF9074B1A689A4208D09B69F8
:1023300099689368994203D203480449FFF7C0FCA7
:1023400062B608BDE03D0020C07B00087075000843
:10235000021C031C10B5041C763212787E331A70EE
:10236000FEF766FF63681B68002B02D0201C01216A
:1023700098470323237010BD0000000000000000F8
:1023800008B572B6FFF764F908BD00000000000050
:1023900008B5FFF775F962B608BD0000000000003F
:1023A00008B5FEF7FDFE08BD0000000000000000BB
:1023B000012303700023011C4360031C48312C33AC
:1023C00000221A60DA6104338B42F9D10281428122
:1023D0007047000000000000000000000000000046
:1023E00038B5041C0D1C002801D0002903D1104869
:1023F0001049FFF765FC72B6FFF7FAF82378013B46
:10240000012B03D90A480C49FFF75AFC231C221C54
:1024100065600C332C32002102C39342FBD1201C97
:10242000FEF7C6FE02232370FFF77AFF38BDC046D1
:10243000E07A000856860008757B0008000000005E
:1024400010B5041E03D10B480B49FFF739FC72B6D7
:10245000FFF7CEF82378013B042B03D90548074941
:10246000FFF72EFC201CFEF7C3FE01232370FFF7AD
:1024700057FF10BD907B000856860008757B00084A
:10248000F8B5041C0F1C151CFFF742F9002C01D0F5
:10249000002D03D113481449FFF712FC2378042BB5
:1024A00003D010481149FFF70BFCBE00A619F368D2
:1024B000002B03D00B480E49FFF702FCF56068695A
:1024C000002803D00021102204F0C2FCA8690028D3
:1024D00003D00021102204F0BBFC391C201CFEF7A5
:1024E000B7FEF8BDA07B000856860008757B000883
:1024F000107B000800000000000000000000000049
:10250000F7B5041C0E1C171C0193FFF701F9002CF2
:1025100001D0072E03D910481049FFF7D1FB012540
:10252000B5406389ADB22B4203D00B480C49FFF78D
:10253000C7FB6389019A1D43B31C9B00E3185B68CA
:1025400065819B69311C1A6000229F605A60201CC3
:10255000FEF77EFFF7BDC046007C000856860008E7
:10256000247B0008000000000000000000000000C4
:10257000F7B5041C0E1C171C0193FFF7C9F8002CBB
:1025800001D0072E03D910481049FFF799FB012508
:10259000B5402389ADB22B4203D00B480C49FFF75D
:1025A0008FFB2389019A1D43B31C9B00E3185B68D2
:1025B00025815B69311C1A6000229F605A60201CD3
:1025C000FEF76EFFF7BDC046207C00085686000867
:1025D000367B000800000000000000000000000042
:1025E00070B5051C0E1CFFF793F8002D03D10848A9
:1025F0000849FFF765FB0120031CB3402C891C40F0
:1026000004D1281C311CFEF78BFF201C70BDC04676
:10261000C07A000856860008000000000000000094
:1026200038B50223021C037000237C3213809370A0
:10263000D37003814381031C041C0C33503A0025E2
:1026400020C39342FBD1231C64331D70201CFEF772
:1026500097FE63681B68AB4202D0201C291C984778
:1026600038BD000000000000000000000000000075
:1026700008B50523037043681B68002B01D00321B4
:10268000984708BD000000000000000000000000A6
:10269000042108B5436801701B68002B00D09847DF
:1026A00008BD000000000000000000000000000065
:1026B000F7B5071C002364373B70031C041C7433FC
:1026C0001A1C0193FEF7A4FE63689B68002B06D1D9
:1026D0006026019B1D782E4000D0E3E005E0201C21
:1026E0009847002800D0EFE0F2E7231C75331A78F2
:1026F0007F231D40C023120215439B009D4248D0FA
:1027000011D8022D00D188E004D8002D2ED0012D43
:102710007CD0C7E080235B009D422ED002339D42D7
:1027200000D195E0BEE0C023DB009D4240D00CD834
:10273000854B9D4200D1A0E0FF33FF339D4200D086
:10274000B0E0A666E666814B65E090231B019D42E2
:1027500045D07F4B9D4259D080231B019D4200D024
:10276000A0E0231C7F33A366012336E0231C7C33C7
:10277000A36602232567E366A6E0231C76331B7855
:10278000012B00D08EE0221C02217C3213888B4367
:102790000AE0231C76331B78012B00D082E0221C38
:1027A00002217C3213880B431380A666E6664DE057
:1027B000231C251C77331978013B1A7803331B78C7
:1027C000783560682D781B022B434568201CA8478C
:1027D000002867D04368A3660368E36636E0231CDD
:1027E000221C76331B787F321370002B01D1033308
:1027F00000E00423237063681B68002B02D0201CB8
:10280000022198470023A366E36604E0514BA366C8
:102810000223E3660023236756E0231C0F2178334D
:102820001B78201C5AB21940002A02DAFEF7E0FD9C
:1028300001E0FEF7C5FD012805D0022832D1464B44
:10284000E066A36602E0454BE566A36626673BE0CB
:10285000231C76331B78002B24D1231C0F217833C3
:102860001B781940CED05BB2201C002B02DAFEF799
:1028700087FEC7E7FEF76CFEC4E7231C76331B78A0
:10288000002B0FD1231C0F2178331B781940B9D0AE
:102890005BB2201C002B02DAFEF742FEB2E7FEF725
:1028A00027FEAFE7201C0021FEF73AFE201C002186
:1028B000FEF71EFE63681B68002B02D0201C05215A
:1028C000984706233B703DE0231C221C7B331B787A
:1028D0007A3212781B021343E26E9A4200D9E36601
:1028E000019BE56E1B787F2B13D9002D08D00123A7
:1028F0003B70FFF745FD201C0021A26EE36E1DE03A
:1029000003233B70FFF73CFD201C291C2A1C2B1CB9
:1029100009E0002D0AD004233B70FFF731FD201C95
:102920000021A26EE36EFFF7EBFD09E005233B708B
:10293000FFF726FD201C291C2A1C2B1CFFF718FE64
:10294000FFF726FDF7BDC046020300005123000833
:10295000020C0000007B0008F07B0008F07A000801
:1029600070B5051C6435041C287806284CD8FDF782
:102970007FFC35042135352E3900231C221C7B3386
:102980001B787A321278E06E1B021343984211D200
:10299000E368198AFDF702FD0E1E0BD1FFF7F0FC6C
:1029A000331C201C311C321CFFF7E2FDFFF7F0FC4A
:1029B000022327E003232B70FFF7E2FC0021201CF9
:1029C0000A1C0B1CFFF79CFDFFF7E2FC20E0236FC5
:1029D000002B01D0201C9847002313E00D480E491E
:1029E000FFF76EF9201C0021FEF79AFD201C002144
:1029F000FEF77EFD63681B68002B02D0201C0521BA
:102A0000984706232B7003E002480449FFF758F962
:102A100070BDC046D07B00084B7B0008637B00087C
:102A200038B5051C6435041C2878062834D8FDF711
:102A30001FFC1D1D1D11041D210005232B70FFF718
:102A40009FFC0021201C0A1C0B1CFFF791FDFFF7C7
:102A50009FFC25E0E3689B695B68002B20D1236F16
:102A6000002B01D0201C9847002313E00D480E498D
:102A7000FFF726F9201C0021FEF752FD201C002143
:102A8000FEF736FD63681B68002B02D0201C052171
:102A9000984706232B7003E002480449FFF710F91A
:102AA00038BDC046E07B00084B7B0008637B000814
:102AB000F0B50025284985B00390043190220B1F02
:102AC0001B680C888E78D205934204D18020234F56
:102AD00080027A691EE0224A934204D180201F4F6F
:102AE000C0027A6916E01F4A934204D180201B4F2E
:102AF00000037A690EE01C4A934204D18020174FEC
:102B000040037A6906E0194A934205D18020134FA9
:102B1000C0037A6902437A6103226400A240A6409E
:102B2000D243341C1F680C3117401F60DF683A40E5
:102B3000DA60DA681443DC600023039A5355012DF0
:102B400001D00125BAE70093F0215A22084B094829
:102B5000FFF77EF905B0F0BD407C00080010024090
:102B60000004004800080048000C00480014004819
:102B7000212C0008001F00200000000000000000C1
:102B8000F7B5051C872000244000FFF789F9211CB8
:102B9000204B00950C2767431F4EBA59F719B88888
:102BA000012784461269381C019262469040021C3B
:102BB00001981040021C285D002A07D0002801D08F
:102BC000032801D1022206E02F5505E0071C013F32
:102BD000012F00D803222A5501340131022C04D0E0
:102BE0000E4A93420FD10124D4E7002B01D0009864
:102BF00098470C236343F618B368022CC2D02A19F5
:102C000000920021C6E7002BF1D10C236343F61894
:102C1000B368F4E7012D0008407C00084169000812
:102C200008B5034B034A9B6903489A61FFF7A8FF65
:102C3000E03D00206C7C0008FC1E0020000000002D
:102C400008B5FEF7EDFC074B1A689A4208D09B695D
:102C500099689368994203D203480449FFF730F812
:102C600062B608BDE03D0020807C00087075000859
:102C70000A4B0A22196800290ED09A68191D127889
:102C800002709A6801328A4201D89A6000E0996025
:102C90001A68013A1A600022101C7047F01F0020C9
:102CA000031C1A680C20002A10D10A78D9680A700F
:102CB000DA68191D01328A4201D8DA6000E0D96071
:102CC00000201A68824201D101221A607047000078
:102CD00013B501AC207072B6FEF78AFC211C0548C2
:102CE000FFF7DEFF044B04211868FEF761FDFFF7D4
:102CF000A7FF13BDF01F0020183D002000000000BA
:102D0000007810B502280BD100210F4B081C197058
:102D1000FFF7DEFF8023DB055A6A0C4B1A6011E0D7
:102D200001280FD1084A117800290BD18023074CC4
:102D3000DB0524685B6A1B1B054CA34202D910709B
:102D4000FFF7C6FF10BDC046042000200020002071
:102D5000654E0000000000000000000000000000C0
:102D6000034A0021131C02C39360D3607047C0461E
:102D7000F01F002000000000000000000000000024
:102D800008B50F230C4A5068016899430160116827
:102D9000127C93404B601021084A93680B43936068
:102DA00072B6FEF755FC064B20211868FEF700FDB1
:102DB000FEF766FC62B608BD80760008002401407C
:102DC000183D00200000000000000000000000008E
:102DD0001021094A93680B42FAD1084B5B68D8600E
:102DE00001205960064919601968014319600421DE
:102DF00093680B439360704700240140807600087D
:102E0000820500000000000000000000000000003B
:102E10000022012902D011394A424A4100235100BF
:102E2000415A02325B180F2AF9D9D80870470000BE
:102E300038B5074B0D1C1888064B07495843141C1E
:102E4000FDF726FA211C6843FDF722FA38BDC0467B
:102E5000BAF7FF1FE40C0000FF0F000000000000A5
:102E60008020214B8000D96810B50143D960002132
:102E7000D9609A6902439A611C4B1D4ADA6080222C
:102E8000D2051A6199629A6A02310A4380219A62D4
:102E90009A6A89020A439A62052280215A619A68D5
:102EA00009060A439A60134A98681049002807DA0D
:102EB000013A002AF8D11048104900F049FE12E00A
:102EC00001208A6802438A601A68D207FCD50C4C3C
:102ED0000C4A0023201C0F21FDF7E2FF63680A4A19
:102EE0009A600A4A1A6010BD001002400024014096
:102EF0000120000019F600003C200020907C000812
:102F000080760008812D00084024014082050000E1
:102F1000064B074A51680C220A40824204D0013B0A
:102F2000002BF6D1022000E0002070470F270000A0
:102F3000001002400000000000000000000000003F
:102F400008B5FEF76DFB074B1A689A4208D09B69DB
:102F500099689368994203D203480449FEF7B0FE8A
:102F600062B608BDE03D0020A07C00087075000836
:102F7000F7B590240193E405A04204D180262E4D9C
:102F8000B6026C691EE02D4CA04204D180262A4D69
:102F9000F6026C6916E02A4CA04204D18026264D28
:102FA00036036C690EE0274CA04204D18026224DE6
:102FB00076036C6906E0244CA04205D180261E4DA4
:102FC000F6036C6934436C6103244E00B440E4435F
:102FD00005688A40254005600225B54007683D43E5
:102FE000056001252B1C8B40B54047689F43476017
:102FF00047683A434260C2682240C260C268C26009
:103000008268144084608268154307228A42924194
:1030100085605242072900D908390F24019B890095
:103020008B408C40191C92008018026AA2430262F5
:10303000026A11430162F7BD00100240000400481B
:1030400000080048000C0048001400480000000080
:1030500038B5041C72B6FEF7FBFA6069E169FEF749
:10306000A7FB631CDB7F012B0ED1A569FEF750FB8C
:10307000E368002B02D0201CFEF7EAFF201C291C6D
:10308000034A231CFEF794FFFEF7FAFA62B638BD36
:1030900051300008000000000000000000000000A7
:1030A0000368214A934204D18021204A090193698F
:1030B00036E08022D205934203D11C4A0121D36914
:1030C00014E01B4A934203D1184A0221D3690DE050
:1030D000184A934203D1154A1021D36906E0164AD3
:1030E000934206D18021114A4900D3690B43D36131
:1030F00018E0124A934204D180210C4A4902936994
:103100000EE00F4A934204D18021084A8902936954
:1031100006E00C4A934205D18021044AC902936912
:103120000B4393617047C046002C014000100240E1
:10313000000400400010004000200040004001401A
:103140000044014000480140000000000000000071
:10315000012103681A688A431A601E4A934205D106
:103160001D4A1E4B91690B40936132E08022D205CB
:10317000934202D1184AD3690CE0194A934203D111
:10318000154A0221D36905E0164A934204D1102161
:10319000114AD3698B431BE0134A934203D10E4A71
:1031A000124BD16913E0124A934203D10A4A114BE0
:1031B000D1690CE0104A934203D1074A0F4BD16901
:1031C00005E00F4A934204D1034A0E4BD1690B40EC
:1031D000D3617047002C014000100240FFF7FFFF51
:1031E000000400400010004000200040FFFEFFFFF0
:1031F00000400140FFFFFEFF00440140FFFFFDFFD4
:1032000000480140FFFFFBFF00000000000000003D
:10321000F7B5071C1D1C08AB40CB081C1B78111C04
:1032200001930AAB1A782D4C3B68A34201D10223CB
:1032300021E02B4CA34201D101231CE0294CA342E5
:1032400005D19023DB05984208D1042313E0264CD6
:10325000A34205D19023DB059842EDD100230AE07B
:10326000224CA34202D0224CA34206D19023DB057C
:103270009842DCD10523FFF77BFE0199C023013979
:103280004C4261413A681B02681E53640631D662A3
:10329000032822D8FCF7ECFF0209101893690901F2
:1032A00019439161136A012115E0936909031943D8
:1032B0009161136A10210EE0D36909011943D161AC
:1032C0008021136A490006E0D36909031943D161DB
:1032D0008021136A49010B431362F7BD002C0140A2
:1032E0000004004000200040004001400044014034
:1032F0000048014000000000000000000000000045
:1033000009020843704700000000000000000000B0
:103310001B021A43120211430902084370470000BE
:103320008021084B49021A680A431A60064A196844
:10333000890304D4013A002AF9D1012000E00020D9
:103340007047C046001002400F2700000000000038
:103350000121074B1A680A431A60064A196889074F
:1033600004D4013A002AF9D1012000E0002070477E
:10337000001002400F2700000000000000000000C5
:103380008021084B49041A680A431A60064A1968E2
:10339000890104D4013A002AF9D1012000E000207B
:1033A0007047C046001002400F27000000000000D8
:1033B00080210D4B49025A6B82B00A435A630022A6
:1033C00001920199094A914202D8019A0132F7E724
:1033D000074A596B890304D4013A002AF9D1012024
:1033E00000E0002002B0704700100240E603000039
:1033F0000F27000000000000000000000000000097
:10340000F0B5374D87B06B68061C1B079B0F022B6E
:1034100005D0032B2CD0012B2CD1324C2BE00F23C9
:10342000E96A6C681940A402240F02340131112C9E
:1034300000D1013CC02280206B6852021340000280
:1034400083420CD003D8002B0FD127480EE08020F8
:103450004002834205D0934207D1244802E0244829
:1034600000E02048FCF714FF00E02148444302E05C
:103470001E4C00E01E4C02AF381C1E49102203F007
:10348000A7FC6B681B491B061B0FF85C1031C4407E
:103490000822B460684603F09BFC6A466B681649D4
:1034A0005B055B0FD35CDC405A425A4102239B1AF6
:1034B0003374124BF460187CDB685843FCF7E8FE69
:1034C00080230121DB051A6801388A431A605A6A91
:1034D000986259615A621A680A431A6007B0F0BDCF
:1034E00000100240001BB70000093D00006CDC0228
:1034F00000127A0010740008102700002820002015
:10350000054810B5054B4468120223401A430901CF
:103510001143416010BDC046001002400FF8FFFF8C
:10352000034A044B50680340194351607047C0463A
:10353000001002400FF8FFFF000000000000000034
:10354000032238B51C4D031C6C6801209443914242
:1035500030D8081CFCF78CFE020B1723181CFFF751
:10356000F7FE002801D0012024E06C6020E0181C48
:10357000FFF7D6FE031C0220002B1BD101331C4396
:103580006C60001814E0181CFFF7FAFE031C0320FF
:10359000002B0FD102331C436C60053008E0181C6F
:1035A000FFF706FF0028DED103231C436C600C30BC
:1035B000FFF7AEFC38BDC04600100240000000001E
:1035C00030B50124221C054B054D18680243A94261
:1035D00001D8021CA2431A6030BDC0460020024040
:1035E00000366E0100000000000000000000000036
:1035F00080201A4A0005D1690143D1611369034350
:1036000013611169164B0B401361164B164958682C
:10361000014080205960596880050143596059680C
:103620001248090E09065960596801435960186823
:103630000F49014080201960196880010143402032
:103640001960196801431960116B001881431163F7
:1036500020211A680A431A607047C04600100240D1
:10366000FFFFFFF7006C0040FFFFFF487FBB220019
:10367000FFC0FFFF0000000000000000000000008D
:103680002021074A13688B431360064B064AD96909
:103690000A408021DA611A6B0A431A637047C046F8
:1036A000006C004000100240FFFFFFF70000000028
:1036B00038B5FE230125114ADB005168041C0B407C
:1036C0000360536B1B0C2B40037172B6FDF790FF28
:1036D00000210B4A201C13682B4313600A1CFFF7C0
:1036E0000FFF2379002B03D1201C0321FFF728FFB4
:1036F000201CFFF785FEFFF723FC38BD00100240B9
:103700000020024000000000000000000000000057
:1037100010B5041C72B6FDF76BFF2168201CFFF783
:10372000FFFE2179002907D1201CFFF709FF074A76
:10373000074B516B0B405363201CFFF761FE201CAD
:10374000A168FFF73DFFFFF7FBFB10BD0010024033
:10375000FFFFFEFF0000000000000000000000006E
:103760000121064B1A680A431A601968034A89073F
:10377000FBD5012193690B43936170470010024010
:103780000122014B1A74704728200020000000001D
:1037900038B5084C0849A068FCF77AFD0649051CB5
:1037A000E068FCF775FD2A1C031C0449044800F07E
:1037B000CFF938BD2820002040420F00B07C00081F
:1037C0003C2000200000000000000000000000007D
:1037D0000023F0B5071C644687B001910093381CA4
:1037E0000199FCF7DBFD0E1C381C0199FCF750FD1C
:1037F000009B071C5D1C331C3733DBB2092E01D83C
:103800003036F3B2009A03AEB3540095002FE6D1E0
:103810002F1C23689D420ED2227CE3683020002AB0
:1038200000D120209847A36862680133A3609342C7
:1038300011D20135EDE7A36862683D1CD21A9742A8
:1038400000D9151CEB18A360002D04D0013D705D5C
:10385000E3689847F8E707B0F0BD000000000000FB
:10386000F0B58BB0069100211D1C05AB08900791A7
:10387000059119741078561C002800D1B3E0252852
:103880000BD0089B01939847079B069A019301333D
:103890000793934200D2A4E0A5E000231A1C0593ED
:1038A0000136711E0878011C3039CCB2092C08D8B9
:1038B000002B02D1302800D101220A204343CB182B
:1038C000EEE7059304AB1A752023021C9A43532A92
:1038D00011D12C1D2D682B78002B7DD0079B5A1CF5
:1038E0000792069A0192934276D2089B2878019318
:1038F00098470135EFE763280DD1089B28680193AD
:10390000C0B29847079B069A019301332C1D079379
:10391000934261D367E0582805D105AB2C1D9C4626
:103920002868102106E0752807D105AB9C46286859
:103930002C1D0A21FFF74CFF4EE0642813D12C1DEB
:103940002D68002D0BDA089B373801939847079BA9
:10395000069A013307930192934244D26D4205AB1C
:103960009C46281CE5E741282CD12B682C1C019390
:103970006B68AF6802930123002504AA1375DB1856
:103980000C340593029B9D4226DA002D0CDC019B32
:103990001021585D05AB9C46FFF71AFF079A069B5E
:1039A0009A4219D20135EDE7002FF0D0089BF8B20A
:1039B00003939847079B069A039301330793934217
:1039C000E5D309E02C1C252806D1089B01939847D4
:1039D000079B019301330793079A069B9A4202D2F1
:1039E000251C321C46E707980BB0F0BD0000000014
:1039F000044BDA691206FBD580B21885DA69120623
:103A0000FCD57047003801400000000000000000B5
:103A1000C2235B00C25810B5541CC4501170021C64
:103A2000C1588132FF32914202D3013AFF3AC2506B
:103A300010BD0000000000000000000000000000B9
:103A400008B5011C0148FFF7E3FF08BD3C2000203A
:103A5000C023C6225B00C158031C52008133825828
:103A6000FF3310B55B1A934200D9131CC8225200D1
:103A70008350002B0CD00024083A8454054A126C61
:103A8000D160536092230121136013680B431360CC
:103A900010BDC04680760008000000000000000055
:103AA0000F22134B10B51C6C216891432160D96B18
:103AB0004C331B789A40C8234A60C6215B004900FA
:103AC000C3584258D21A42500C394458E31844188B
:103AD000A34201D3031C80334350002A04D1C423E2
:103AE00001325B00C25401E0FFF7B2FF10BDC046D7
:103AF00080760008000000000000000000000000C8
:103B000008B50248FFF7CCFF08BDC0463C200020A6
:103B100070B5C6250E1C80216D00131C4259041C73
:103B20004900891A0748321CFFF79AFE6359C018EA
:103B3000C42360515B00E35C002B02D0201CFFF724
:103B400087FF70BD413A000800000000000000003F
:103B50000EB477B507AC061C20CC72B6FDF748FD55
:103B6000221C301C291C0194FFF7D2FFFDF758FDE1
:103B7000084B1A689A4208D09B69996893689942E1
:103B800003D205480549FEF79BF862B677BC08BC2E
:103B900003B01847E03D0020E07C00087075000885
:103BA0000EB403B503AA02CA0192FFF7B1FF02B037
:103BB00008BC03B01847000000000000000000002F
:103BC0000EB403B503AB04CB044905480193FFF7DA
:103BD00047FE02B008BC03B01847C0469F860100EC
:103BE000F1390008000000000000000000000000A3
:103BF0000FB407B504AB04CB044905480193FFF7A4
:103C00002FFE03B008BC04B01847C0469F860100D1
:103C1000F139000800000000000000000000000072
:103C200008B5031C0348D96FFCF732FB024BD86080
:103C300008BDC04600127A000038014000000000B4
:103C4000F7B5041C90200191C0054449824203D17C
:103C500080254869AD021AE04148824203D180259F
:103C60004869ED0213E03F48824203D1802548694C
:103C70002D030CE03C48824203D1802548696D0346
:103C800005E03A48824204D180254869ED03284383
:103C9000486103205E00B040C043156805401560D0
:103CA0000225B54017683D4301279F4015605568C0
:103CB000BD4355600125B54057685760D768074038
:103CC000D760D768D76097683840906090680543A0
:103CD00007209842804195604042072B00D9083B5D
:103CE0000F259B009D4080001218106AA8430125F3
:103CF0002E1C9E40331C1062106A1D4E034313623B
:103D00008022019BD201E3678B69201C13430322AD
:103D10008B610B6B13430B63FFF782FF0023802043
:103D2000144973600A68800002430A60124809213E
:103D3000124AFDF7B5F8124B124A1B6C9A60922298
:103D40001A60C4235B00E554813BFF3B336078334A
:103D5000B36033681D433560F7BDC04600100240B4
:103D60000004004800080048000C00480014004807
:103D70000038014000000140BC760008013B00080B
:103D80008076000828380140000000000000000094
:103D90000C4B0022191C70310A700B49C0200831ED
:103DA0001960191C40008031195004301950C42189
:103DB0008438FF38490058540431DA665A679A67E4
:103DC0005A5070473C200020D07C000800000000C2
:103DD00010B57F2816D9002906D0FF2811D88038C1
:103DE000094B4000C05A0DE0074A4C00A25A8BB262
:103DF000824203D001318029F6D10B1C8033D8B226
:103E000000E0002010BDC046D08000080000000087
:103E100070B57F2806D8031C613B192B1AD82038AF
:103E200080B217E0F72500210C226D006B1A5B08A9
:103E30005B18094E5C00A65BB04207D001D81D1C80
:103E400000E0191C013A002AF0D103E0002A01D059
:103E5000024BE05A70BDC046D0810008F07C0008DB
:103E6000024B187C434258414000704768330020A1
:103E7000024B187C43425841400070476833002091
:103E800010B50C1C1B0311030248221C01F038F969
:103E9000002010BD6833002000000000000000007A
:103EA000036810B51A1E10D011781F290BD93A29B2
:103EB00001D00132F8E7591C1C788A4205D1302C18
:103EC00003D102330360002001E00120404210BD15
:103ED00010B50924002810D00368002B0DD01A78E3
:103EE000002A0AD0D9888288914206D15878FFF7F3
:103EF000B7FF0123184000D1041C201C10BD000096
:103F0000F8B50D1C03690935002B35D00022436933
:103F1000561C9A5C202A15D0052A53D0092E02D1AE
:103F20002E242C700135141C413C192C08D81F7B01
:103F30001024082E00D8083C274201D02032D2B2EB
:103F40002A700135321E0B2AE2D1DA7A0A72DA7F40
:103F500014069A7F120422431C7F22435C7F2402B2
:103F600022430A605A7E1C7E120222438A80DA7D36
:103F70009B7D12021343CB8000242C708D69A542D7
:103F800024D00369A34201D1002418E0CB69002B9F
:103F9000FAD0028C0E4B9A42F6D00E1CC769630011
:103FA000F85A00280BD00021FFF712FF0028EBD0B1
:103FB000F369013B9C42E7D228550134EFE7002327
:103FC0002B5503E0E522092EBAD1A9E7F8BDC0467A
:103FD000FFFF0000000000000000000000000000E3
:103FE000CB7E021C887E1B021843032A05D14B7D21
:103FF0000A7D1B0213431B04184370470000000096
:10400000836A70B5041C0D1C002699420CD0211C3B
:1040100040782C312A1C0123FFF732FFB04202D036
:10402000012501366D42A562301C70BD0000000004
:10403000002310B50371013B8362041CFFF7E0FF0E
:10404000011C0320002939D11D4B1E4AE35CA25CF0
:104050001B0213431C4A1BB2013893422ED1231C6E
:1040600065331B78081C1A06231C64331B781B0459
:104070001343221C623212781343221C63321278DB
:1040800012021343114A1B021B0A934216D0231C2F
:1040900081331878013B1B7800061B041843231C4E
:1040A0007E331B787F34184323781B0218430002A9
:1040B000074B000AC018431E9841C0B210BDC0464D
:1040C0002B0200002A02000055AAFFFF46415400BF
:1040D000BABEABFF000000000000000000000000BE
:1040E000F0B5002689B00660071C081CFFF7D8FE53
:1040F0000B23051EB54200DA1FE1914B8200D45814
:104100000C23B44200D118E13C602378B3420DD1B6
:104110000023E8B223706070FFF7AAFE012630404A
:10412000051C0323002800D007E106E06078FFF7B4
:1041300097FE331CC207EBD4FFE0201C291CFFF7BD
:1041400077FF012827D1231CEF33FF330022197892
:10415000914209D0DA7911069A7912040A43197941
:104160000A43597909020A43A90004A801350A50F3
:104170001033042DEAD1002604AB9D590220002DF6
:1041800005D0201C291CFFF753FF00280BD0043654
:10419000102EF1D1CDE0331C032800D1CDE0002852
:1041A00001D00D23C9E0231C221C38331B78373281
:1041B00012781B02134380221BB252019342F0D1AA
:1041C000231C43331E78013B1B7836021E4310D15B
:1041D000231C53331E78013B1B7836061B041E43F9
:1041E000231C50331B781E43231C51331B781B02A6
:1041F0001E43231C66613C331B7801936B461B797D
:10420000E370019B013B012BCBD8231C3933197878
:10421000A1700029C5D04B1E1942C2D1231C3E33C8
:104220001F78013B1B783F021F4327817B06B8D1D3
:10423000231C40331878013B1B780002184310D12F
:10424000231C4F331878013B1B7800061B041843CE
:10425000231C4C331B781843231C4D331B781B0243
:1042600018433A229446231CA44462463B331B78ED
:1042700012781B021A43029293D0019AFB097243EF
:104280000392029A9B18039A9B180193984288D331
:10429000C01AFBF7FDFF002883D02A4A0123904271
:1042A00004D9294B83429B415B420233029A019914
:1042B000AA180230A5614D192061E2616562032BE5
:1042C00017D1002F00D06CE7221C5B3212788000DF
:1042D0001106221C5A32127812040A43211C58314A
:1042E00009780A43211C5931097809020A432262DC
:1042F0000FE0002F00D154E703998A182262022BA5
:1043000001D1400005E00322012142430840520848
:1043100010180E4A8018000B864200D241E70C4A62
:104320002370138801339BB21380E3800023E36082
:1043300003E00123032800D033E7181C09B0F0BDC7
:10434000D4220020F50F0000F5FF0000FF0F000051
:10435000D222002000000000000000000000000049
:10436000036902399A1E0023914203D28378426A7C
:1043700059438B18181C7047000000000000000013
:10438000F7B50124A14262D9036999425FD203784B
:104390000E1C051C022B2DD0032B3ED0A34256D160
:1043A0004F087F18C369390BC918FFF729FE002889
:1043B00002D0012464424AE07B1C3F050193190BA3
:1043C0003F0DEB69EF192837C918281C3F79FFF713
:1043D00017FE0028EDD1019B1805000D2D1828357A
:1043E0002B791B021F43264201D03C092FE03F05D9
:1043F0003C0D2CE0C369C90AC918FFF701FE00286B
:10440000D7D1144B76001E40AB192836AD1928338E
:104410006C791B7924021C4319E0C369890AC91805
:10442000FFF7EEFD0028C4D10B48B6000640AA19DC
:104430002C329478D37824041B061C435378AE198D
:104440001B0228361C4333791C4324012409201CF9
:10445000FEBDC046FE0F0000FC0F00000000000083
:1044600070B5C6880136B3B2002B01D104202DE00F
:104470000369002BFAD07F25041C35401FD1C16889
:10448000013303610068002903D103899E42EDD204
:1044900015E08278F309013A1A4210D1FFF770FF54
:1044A000011C0220012911D901384B1C0ED02068B3
:1044B00003699942DAD2E160FFF752FF20610020E0
:1044C00023686D015D192C35E680656170BD0000C3
:1044D000002370B58468C380012C01D1022031E033
:1044E000066833699C42F9D2051C002C0BD1337845
:1044F000032B02D1336A002B04D13389002BEDD07A
:10450000306A15E01C1CB378002B0DD1211C2868E3
:10451000FFF736FF041C431C13D00128DED92B689B
:104520001B699842F2D3D9E7301C211CFFF718FF12
:10453000EC600028D2D02861301C2C30686100204B
:1045400000E0012070BD000000000000000000003D
:10455000F0B50B7889B0041C01912F2B01D05C2B96
:1045600004D1019B01330193002301E00368DB6860
:10457000A360019B1B781F2B08D8201CFFF7A8FF06
:1045800000236361FBE1019B01330193019B1B78D5
:104590002F2BF8D05C2BF6D00026E769019B751C09
:1045A000985D1F281BD92F2819D05C2817D0802E82
:1045B00000D1D4E10121FFF70BFC002800D1CEE1AE
:1045C0007F2808D80023B64AD25C002A03D00133E2
:1045D0008242F8D1C3E17600B8532E1CDEE7019B7E
:1045E0005B19019300251F2383426D41AD00012E0D
:1045F00006D0022E00D029E17B882E2B00D025E1A9
:104600003B882E2B00D021E100237200D353A269F6
:104610002E21D218B34200D30E39013311700B2B67
:10462000F5D115331D433CE000235A00BA5A202A25
:1046300000D11DE12E2A00D11AE1002B02D0032265
:104640001543EDB2029A5200023ABA5A2E2A04D009
:10465000029A013A0292002AF4D10822039200221F
:10466000161C05925A1C5B00D85B0492002800D0EF
:1046700000E1A3691A78E52A01D1E03A1A70039B98
:10468000082B01D1B600F6B20C2333400C2B00D11D
:1046900053E103223240032A00D14EE1AA0700D49D
:1046A0004FE1A369201CDD72FFF712FF002800D044
:1046B0009FE001235B4223840133FF331E1C0293DE
:1046C00020682169FFF79CFC002800D091E0656913
:1046D0002B78002B00D18BE0E97AE52B00D17CE030
:1046E0003F220A40090702D50F2A76D101E00F2A9E
:1046F00054D1E2690492002A73D04022134206D0BA
:104700009343697B1E1CE3880291238401E0B3423A
:1047100066D16B7B029A934262D1EB7EAA7E1B022A
:1047200013431BB2002B5BD13F222F78039317401A
:10473000013F323A57430C3A5A4B0399C95C6B1804
:104740005B78695C1B0219430591002A12D07F2F08
:1047500046D8081CFFF75CFB7B1C0693049B7F007C
:104760000790F85AFFF754FB079B834238D1059A0C
:10477000069F03E04C4B0599994231D1039B0133CD
:1047800003930D2BD8D12B785B0656D5002A54D035
:10479000049B7F00FB5A002B4FD021E0002E0FD14D
:1047A000291C2A1C031C0B315E08DB0133431678DD
:1047B00001329B19DBB28A42F6D1029A9A4218D092
:1047C0000123A269D17A0B4007D1EE5CD15C0133A1
:1047D0008E4202D10B2BF8D10BE001235B422384E4
:1047E000FF26201CFFF73CFE002800D168E700E010
:1047F0000420A369DB7A002811D0042800D0BEE091
:104800001A1C02409B0607D50023A36063619A42ED
:1048100000D1BBE60020B2E0002A0CD0AFE05B077D
:10482000F8D46169CB7ADB0605D523681878FFF7E1
:10483000D7FBA060AAE60520A1E0013EF6B2D0E7D2
:1048400073009A1EBA5A202A03D1013E002EF7D1D6
:1048500085E02E2AF9D00022DA53A36902961A1CA9
:104860000B32934200D1DFE6202119700133F8E7C3
:104870000133DAE6202805D02E2808D1131E029A2B
:1048800093426ED003231D43EDB2049BEAE6059BE1
:10489000039A93420AD2049B029A934222D160E087
:1048A000B085000840860008FFFF0000039B0B2B2B
:1048B00005D103231D430833EDB20393D9E6049BCE
:1048C000029A934206D003231D43049BEDB2934208
:1048D00000D9CEE6029BB60004930B23F6B20393F5
:1048E000033B28E07F280DD90021FFF771FA00284B
:1048F00003D0244B18188038007802231D43EDB2F2
:10490000002807D00023204AD25C002A07D00133B8
:104910008242F8D103231D43EDB25F2006E0031C61
:10492000413B9BB2192B20D802231E43A369059A51
:104930009854131C01330593A7E702221543EDB2E7
:10494000ACE603221640012E02D10D321543EDB222
:10495000042B00D0A5E604331D43EDB2A1E60620EA
:104960000DE0039B0B2BB5D1A3E7031C613B9BB26E
:10497000192BDBD8012320381E4380B2D6E709B0BB
:10498000F0BDC046C0850008B985000800000000E1
:104990001FB5019003A80091141C0391FFF780FA42
:1049A000031C0B20002B15DB0B4A98008358002BAF
:1049B00001D000211970019B002B01D0002119703A
:1049C0001350181E06D00020012C03D101A86946FF
:1049D000FFF786FB04B010BDD422002000000000C9
:1049E000F0B58FB001910925002838D00023041CB0
:1049F000036001A905A8171CFFF772FB051E2ED145
:104A000002AB0B93174B05A801990C93FFF7A0FD80
:104A10000A9E002807D1002E04D0F37ADB0604D5C5
:104A2000042000E00620051C19E001221740A771B0
:104A3000059FE5713878311CFFF7D2FA2061F37FCA
:104A40001A06B37F1B041343327F1343727FA560A2
:104A500012021343E360A5612760FB88A380281C32
:104A60000FB0F0BDD02100200000000000000000C9
:104A7000F0B585B003930023151C039A041C136042
:104A80000191FFF725FA002800D085E0E0790028A1
:104A900000D081E0A3790730DB077DD5E368A26809
:104AA0002F1C9B1A9D4233D91F1C31E0A2681305AD
:104AB00044D12068130B8678013E3340DEB2002ECD
:104AC00029D023686169181C0293FFF749FC00286C
:104AD0002AD082193D0B30D0029BA9199B789942AC
:104AE00000D99D1B029B019958782B1CFFF7C8F930
:104AF00000281DD12D03019B039A5B190193A36824
:104B00007F1B5B19A360039B1B6802935B191360F7
:104B1000002FCBD13FE0002A01D1206902E061697A
:104B2000FFF72EFC012801D8022002E0431C02D12D
:104B30000120E07130E06061C3E7A2618022A368D8
:104B400052011B051B0DD31A3D1E9D4200D91D1C91
:104B50002068A169FFF754FA0028E9D1A36820680A
:104B60000E491B051B0DC318081CCA6A2C33936021
:104B7000019BD3600A4B556013605368002BFCD136
:104B800016680F339E431660021C38321278896A09
:104B900093404B60AFE7381C05B0F0BD807600084D
:104BA000C1600000000000000000000000000000E4
:104BB00010B5041CFFF78CF9002800D1206010BD4F
:104BC00030B58FB0019001A905A8FFF789FA041E3E
:104BD0001ED102AB0B93104B05A801990C93FFF764
:104BE000B7FC041E0FD10A99002903D1059B079A2F
:104BF000DA600DE0CB7ADB0609D5059D2878FFF752
:104C0000EFF9E86004E0042802D1013400E0052453
:104C1000201C0FB030BDC046D02100200000000095
:104C2000F7B5041C0D1CFFF753F9002857D1E079A4
:104C3000002854D1E3689D4200D91D1C0022A368BE
:104C4000A260954201D1002540E0226896783603A3
:104C5000002B12D0311C681E5F1EFBF719FB311CA4
:104C60000190381CFBF714FB019B834205D3734270
:104C70003B40A360ED1A616901E02169616100298F
:104C8000E1D0B54216D92068FFF77AFB011C431C1E
:104C900001D1012006E0012803D923681B6998424D
:104CA00002D30220E0711AE0A36860619B19A3603F
:104CB000AD1BE6E7A3685B19A3602B05C3D0206892
:104CC000FFF74EFB0028ECD02D0B45190020A36800
:104CD0001B05834203D0A3699D4200D0A561FEBDA0
:104CE00010B586B001910923002831D0041C01A918
:104CF00002A8FFF7F5F900281FD1029B201C2360B2
:104D000003ABA361144B0199E361FFF721FC002879
:104D10001BD16169002907D0CB7ADB060CD5029B39
:104D20001878FFF75DF9A060029B201CDB88A38048
:104D3000FFF7CEFB042804D1052000232360031CC9
:104D400006E00023984203D0F7E70428F5D1F3E703
:104D5000181C06B010BDC046D02100200000000085
:104D600010B5041CFFF7B4F8002800D1206010BD76
:104D7000F0B58BB0051C0591FFF7AAF8061E00D010
:104D8000A5E0059B002B03D1281CFFF7A1FB97E0B2
:104D900007ABAB614F4B0420EB61FF231C1C01935D
:104DA0002969002979D02868FFF72AF9002876D1E7
:104DB0006B691A78002A00D187E03F21D87A014038
:104DC000E52A63D020200F1C8743082F5ED00F29CF
:104DD00048D131310A4206D08A43587B141CEA88F4
:104DE00001902A8401E0A24250D15A7B01998A4263
:104DF0004CD1EA69997E0392DA7E12020A4312B21A
:104E0000002A43D13F211878029201400D20013938
:104E100041430C3804903048029A105C1F187F7888
:104E2000185C3F023843049F002F09D07F292DD8FA
:104E30004F00BC466246039F0490D053013102E00C
:104E4000264A904222D1029A013202920D2AE2D1E0
:104E50001B785B0636D57F2918D80023039A4900B2
:104E60008B522FE0002C0DD11A1C0B326108E4018B
:104E70000C43197801336418E4B29342F6D1019BD4
:104E8000A34211D001235B422B840DE0FF24281C98
:104E9000FFF7E6FA002883D001E0002804D00023C1
:104EA0002B61FB3318420BD1281C0599FFF728F81A
:104EB000281CFFF7D5FA042802D100232B6106E055
:104EC000061C04E0013CE4B2E1E70420E7E7301C03
:104ED0000BB0F0BDD021002040860008FFFF00008D
:104EE00030B58FB001900D1C05A801A9FFF7F8F8A7
:104EF000041E15D102AB0B930B4B05A801990C9323
:104F0000FFF726FB041E0BD10A9B0093002B06D053
:104F1000002D05D005A8291CFEF7F2FF00E00624AD
:104F2000201C0FB030BDC046D02100200000000082
:104F3000F7B5071C0D1C161C0C1C721E631B93423C
:104F400013D2381C6946012201ABFFF791FD0028FE
:104F50000ED1019B012B0DD16B461B780D2B04D07C
:104F60000A2B02D023700134E7E70020207002E012
:104F7000012000E00D20FEBD000000000000000048
:104F800010B50B4800F0DCF90A480B490122FFF785
:104F9000FFFC041E094804D10949FEF7D9FD201C75
:104FA00004E00849221CFEF7D3FD012010BDC046D5
:104FB000683300201C230020568600083C20002077
:104FC000508600085786000800000000000000001E
:104FD00070B5061C0122081C0D1C311CFFF700FDDA
:104FE000021E0DD1EB68041C002B10D1281CFFF70A
:104FF000DFFD08480849321CFEF7AAFD0A3406E026
:105000000124042803D003480449FEF7A1FD201C15
:1050100070BDC0463C2000206B8600087A860008E0
:1050200008B572B6FCF714FB03480021FCF790FFAB
:10503000FCF726FB62B608BD6433002000000000C8
:1050400008B5FCF7EDFA074B1A689A4208D09B693D
:1050500099689368994203D203480449FCF730FEEB
:1050600062B608BDE03D0020A0860008707500080B
:1050700003689A68D20701D5DA68FAE7704700003A
:105080000368197303689A68D207FCD5187BC0B20D
:105090007047000000000000000000000000000059
:1050A0000023037490231022DB059A62083A9A6267
:1050B000043A9A628022024B92019A617047C0467C
:1050C0000008004800000000000000000000000090
:1050D00037B5041C01AD0192FFF7D2FFA978201C5F
:1050E000FFF7CEFF6978201CFFF7CAFF2978201C44
:1050F000FFF7C6FF37BD0000000000000000000001
:10510000F0B585B0051C0C1C0292039372B6FCF737
:105110006FFAFCF715FB2B1D181C0193FCF720FD03
:105120000126002852D190231022DB059A62281C08
:10513000221C0321FFF7CCFF40212B68254F1A6862
:10514000BC698A4380211A601A68C9000A43402159
:105150001A605A68204832435A60029AE260039A01
:1051600062601E4A22602268324322601A680A4343
:105170001A60FCF7CDFE0F232268281C9A43226098
:105180007A690537F97F8B405360902310224021C4
:10519000DB059A612B681A688A431A601968104AFD
:1051A0000A4040211A605A68B2435A601A680A439A
:1051B0001A60FFF75DFFFCF7ABFAEB68002B02DC2F
:1051C0000198FCF705FDFFF73BFF0026301C05B0FA
:1051D000F0BDC046807600086433002082200000C5
:1051E000FFFBFFFF000000000000000000000000C7
:1051F00038B590241025E405A5620621FFF740FF8D
:10520000A56138BD000000000000000000000000A3
:1052100038B590231022DB059A620521051CFFF7A3
:105220002FFF084C013C05D3281C0021FFF728FF65
:10523000C307F7D49023102260426041DB05400091
:105240009A6138BD40A5AE020000000000000000D9
:10525000F8B590250F1C041C1026ED05FFF7C8FFBC
:10526000AE623A1C201C2021FFF732FFAE61201CE9
:10527000FFF7CEFFF8BD00000000000000000000B6
:10528000F0B585B0041C0191171C72B6FCF7B0F99B
:10529000FCF756FA231D181C0093FCF761FC01264D
:1052A000002842D190230822DB059A61201C019935
:1052B000FFF7CEFF061E2AD180233D1C5B01FB18A1
:1052C0000293201C9026FFF793FF1023F605B3628C
:1052D000019B201CDA1BAA180221FFF7F9FE6B1CA8
:1052E000FF3303932978201CFFF7CAFE039B013587
:1052F0009D42F7D11023201CB361FFF7B9FE201C9B
:10530000FFF786FF061E02D1029B9D42D9D1902352
:105310000822DB059A62FCF7FBF9E368002B02DC4C
:105320000098FCF755FCFFF78BFE301C05B0F0BD74
:105330000022014B1A7470476833002000000000FF
:10534000F8B5041C72B690251026ED05FCF750F94F
:10535000AE62201C6621FFF793FEAE61C046C046D8
:10536000C046C0469921AE62201CFFF789FEAE619F
:10537000FFF766FE1848FCF793FD201CFFF778FE48
:1053800072B6FCF735F9AB21AE62201CFFF778FE50
:105390000021201CFFF774FE0021201CFFF770FE87
:1053A0000021201CFFF76CFE0021201CFFF768FE87
:1053B000071CAE61FFF744FE0A20FCF771FD0748A9
:1053C00007493A1CFEF7C4FB162FBBD10123201C52
:1053D0002374FFF74DFEF8BD8C0A00003C2000202E
:1053E000B08600080000000000000000000000007F
:1053F000F8B580239024071C8020904E9B02726990
:10540000E4051A43726121688D4A40001140216011
:1054100021688C4D014321606168F03881436160EF
:10542000616830306160E1681140E160E168E1602D
:10543000A1680A40C021A260A26889000A43A26054
:1054400072691A437261C022216891432160216808
:1054500001432160616838388143616061680830C8
:105460006160E1689143E160E168E160A1689143B6
:10547000A160A1680A43A26072691A437261302276
:1054800021689143216021680143216061680C38E3
:1054900081436160616880206160E168C00491437C
:1054A000E160E168E160A1689143A160A1680A43FD
:1054B0008021A260726909030A4372612968624A05
:1054C0001140296029680143296068685F490140EB
:1054D0006960696880206960E96800011140E960DD
:1054E000E968E960A9680A40C021AA60AA680905BC
:1054F0000A43AA6072691A4372612168544A1140D2
:10550000216021680143202021606168814361603E
:10551000616880206160E16880011140E160E168BC
:10552000E160A1680A40C021A260A26809010A43A3
:10553000A260216A474A0A402262226A2262726994
:105540001A4372612168444A114021602168014375
:10555000402021606168814361606168381D61603D
:10556000E1681140E160E168E160A1680A40C021A2
:10557000A260A26889010A43A260216A374A0A40F0
:1055800080212262226A09022262726913437361D6
:105590002268334B1A40226022680A43802122602D
:1055A00062688A43626062687F396260E2681A40BA
:1055B000E260E268E260A2681340C022A360A368D0
:1055C00012021343A360236A1B011B092362236A8F
:1055D0002362FCF7ADFA8021B269224B49010A43EC
:1055E0003B60B261C12292001A601A681E481A60BC
:1055F000B82252015A60D9691C4A0A404021DA6136
:105600001A680A431A603139194A0023FBF748FC2B
:10561000184B194A9B69E1209A6080239B01AB6279
:105620001023A361083BA362043BA361C000FCF705
:1056300037FC381CFFF784FEF8BDC046001002405E
:10564000FFFCFFFF00080048FFFFFFF3FFDFFFFF45
:10565000FFF3FFFFFFFF0FFFFFCFFFFFFFFFFFF095
:10566000FF3FFFFF0030014094760008FFF7FFFF87
:1056700021500008807600080C3001400000000036
:1056800008B5FBF7CDFF074B1A689A4208D09B6913
:1056900099689368994203D203480449FCF710FBC8
:1056A00062B608BDE03D0020C086000870750008A5
:1056B00008B572B6FBF7CCFF044B40211868FCF725
:1056C00077F8FBF7DDFF62B608BDC046183D002045
:1056D00038B5041C051D72B6FBF78AFFFCF718F8F5
:1056E0002369002B02D0281CFCF7B2FCFFF7C8FF8F
:1056F0000023637638BD00000000000000000000B9
:10570000F0B5061C0023051C4436C3B03370281CBA
:1057100080221C3002A95200FFF70AFC00287CD12D
:1057200002A803785A1E1F2A01D80130F9E73B2B43
:10573000EDD0232BEBD0002BE9D05B2B27D1441CE1
:10574000201C5D2101F0FCFB002802D134483549C2
:1057500004E0031B042B05DC31483349221CFEF70F
:10576000F7F9D4E7002304380371304901F0B8FB9E
:10577000002802D02A482E49F0E7301C211C01F0F5
:105780004FFC01235B42AB63EB632B64BFE7294C07
:10579000211C01F085FC211C071C002001F080FC6D
:1057A0000378002BB3D001A9002201F079FD019B01
:1057B000041C1B78002B1DD1381C1F4901F090FBE5
:1057C000002801D1EC6319E0381C1C4901F088FB6A
:1057D000002801D1AC6311E0381C194901F080FBAD
:1057E000002801D12C6409E00D481649321CFEF74F
:1057F000AFF903E00A481449321CB0E73378002BB4
:1058000085D0EB6B002B82DBAB6B002B00DC7EE7E3
:105810002B6C002B00DA7AE7002043B0F0BDC046C5
:105820003C200020D0860008E1860008F1860008B0
:10583000F686000806870008098700081087000818
:105840001B87000823870008378700080000000036
:1058500070B5041C88B0261CFFF73AFF00231C36E5
:1058600023761048311CFFF7B3FB002815D1201C0C
:10587000FFF746FF051E10D1201C69464430FFF794
:105880002FFB0028F3D1009B0C2BF0D9301C291CD6
:10589000FFF7C6F90123237600E00125281C08B094
:1058A00070BDC046498700080000000000000000ED
:1058B0007FB5041C0025201CFFF722FF021E0D2AC5
:1058C0000ED1002D3CD1251C1C35281CFFF770F98A
:1058D0001C48291CFFF77CFB002831D10125EAE791
:1058E00000282DD1184B19480093A38F111C019348
:1058F00023880293231C443300F092FA0028DAD163
:10590000FA21A36B124889005843124B251DC01879
:10591000FAF7BEFC061C72B6FBF76AFEFBF7F8FE50
:105920002369002B02D0281CFCF792FB0023281CC3
:10593000311C094AFCF73CFBFFF7A2FE236C2380D5
:105940007FBDC04649870008483300207C330020D3
:1059500010270000E7030000B15600080000000017
:1059600008B5037E002B05D0002303800133437666
:10597000FFF79EFF08BD00000000000000000000CF
:105980009023DB05984204D18021134A8902536990
:105990001EE0124B984204D180210F4AC90253697C
:1059A00016E00F4B984204D180210B4A090353693A
:1059B0000EE00C4B984204D18021074A49035369F9
:1059C00006E0094B984205D18021034AC903536977
:1059D0000B4353617047C04600100240000400486A
:1059E00000080048000C00480014004800000000B7
:1059F00010B5041C72B6FBF7FBFD0B4B211C18689D
:105A0000FBF7D6FEFBF70CFE084B1A689A4208D04B
:105A10009B6999689368994203D205480549FCF748
:105A20004FF962B610BDC046183D0020E03D002091
:105A3000208D0008707500080000000000000000C4
:105A4000F0B58024144AE4025369234353610322CE
:105A50004400E4B2A240D243104BA1401D6815405F
:105A60001D6001252F1CA7401E6885403E431E6017
:105A70005E680C1C301CA843586058685860D86891
:105A80001040D860D868D860986802409A609A68D8
:105A900014439C60F0BDC046001002400004004862
:105AA000F8B5041C0327FDF753FB66682589301CF5
:105AB000FFF766FF3A1C6D00AA40151C201C3368D6
:105AC00010301D433560FDF743FB6569248B281CAE
:105AD0006400A740FFF754FF80222B6852001F4349
